:020000040800F2
:10000000002800202D190008B9160008BF160008A6
:10001000C5160008CB160008D11600080000000025
:10002000000000000000000000000000D7160008DB
:10003000E316000800000000EF160008FB16000899
:100040007519000875190008751900087519000858
:100050007519000875190008751900087519000848
:100060007519000875190008751900087519000838
:100070007519000875190008751900087519000828
:100080007519000875190008751900087519000818
:100090007519000875190008751900087519000808
:1000A00075190008751900087519000875190008F8
:1000B00009170008751900080000000075190008EC
:1000C0007519000800000000000000007519000804
:1000D00000000000751900087519000800000000F4
:1000E000751900087519000875190008000000004E
:1000F0000000000000000000000000000000000000
:0C01000000000000000000005FF808F1A3
:10010C0010B5054C237833B9044B13B10448AFF345
:10011C0000800123237010BDF000002000000000BF
:10012C00A42F000808B5034B1BB103490348AFF3D8
:10013C00008008BD00000000F4000020A42F00087F
:10014C0080B483B000AF7860094A7B6852F82330E2
:10015C00012B06D1064A7B68002142F823100123AB
:10016C0000E0002318460C37BD4680BC704700BF2A
:10017C002801002080B582B000AF00237B6081E0B5
:10018C00454A7B6852F8232044497B6841F8232078
:10019C00434A7B6852F823203F497B6841F823206F
:1001AC007B68002B0BD14FF400513E4801F0C8FE88
:1001BC00034619463A4A7B6842F823101CE07B68D8
:1001CC00012B0BD14FF48041364801F0B9FE0346A8
:1001DC001946334A7B6842F823100DE07B68022BEA
:1001EC000AD14FF400412F4801F0AAFE03461946EC
:1001FC002B4A7B6842F82310284A7B6852F823204C
:10020C0025497B6851F823309A4238D1224A7B68C1
:10021C0052F8232022497B6851F823309A422ED180
:10022C001F4A7B6852F823201F497B6851F8233002
:10023C009A4216D01A4A7B6852F823201A497B68D6
:10024C0041F82320164A7B6852F82330002B16D134
:10025C00164BC8221A60164A7B68012142F82310FB
:10026C000DE0124B1B68013B104A13600F4B1B68CF
:10027C00002B04D10A4A7B68012142F823107B68C9
:10028C0001337B607B68092B7FF77AAF00BF00BF1F
:10029C000837BD4680BD00BF28000020500000205C
:1002AC0000000020000C014078000020A00000207D
:1002BC002801002080B500AF4B4B1B68072B33D0B7
:1002CC00072B00F38E80052B02D0062B58D088E02C
:1002DC0001F024FA454B1B68454A82FB031292102D
:1002EC00DB17D31A434A1360404B1968404B83FB0E
:1002FC0001239A10CB17D21A13469B0013445B00B0
:10030C00CA1A3C4B5A60394B1B68013B374A136085
:10031C00364B1B68002B5FD1374B1B68334A13607D
:10032C00314B07221A6057E001F024FA334B1B685B
:10033C002F4A82FB03129210DB17D31A2D4A13603B
:10034C002E4B19682A4B83FB01239A10CB17D21A18
:10035C0013469B0013445B00CA1A264B5A60274B6A
:10036C001B68013B254A1360244B1B68002B35D1BD
:10037C00234B1B68214A13601B4B06221A602DE08D
:10038C0001F0E2F91F4B1B68194A82FB0312921011
:10039C00DB17D31A174A13601A4B1968144B83FBDB
:1003AC0001239A10CB17D21A13469B0013445B00FF
:1003BC00CA1A104B5A60134B1B68013B114A13604D
:1003CC00104B1B68002B0BD10F4B1B680D4A136095
:1003DC00054B05221A6003E000BF02E000BF00E0FD
:1003EC0000BF00BF80BD00BFA4000020BC000020E7
:1003FC006766666614010020B4000020DC00002053
:10040C00D4000020CC000020C400002080B500AF38
:10041C004B4B1B680A2B07D00A2B00F38E80082B42
:10042C005AD0092B2CD088E001F0E6F9454B1B681B
:10043C00454A82FB03129210DB17D31A434A13600E
:10044C00404B1968404B83FB01239A10CB17D21AEF
:10045C0013469B0013445B00CA1A3C4B5A60394B41
:10046C001B68013B374A1360364B1B68002B5FD16E
:10047C00374B1B68334A1360314B09221A6057E023
:10048C0001F0A4F9334B1B682F4A82FB0312921024
:10049C00DB17D31A2D4A13602E4B19682A4B83FB9A
:1004AC0001239A10CB17D21A13469B0013445B00FE
:1004BC00CA1A264B5A60274B1B68013B254A13600E
:1004CC00244B1B68002B35D1234B1B68214A13602E
:1004DC001B4B08221A602DE001F062F91F4B1B68C0
:1004EC00194A82FB03129210DB17D31A174A1360B6
:1004FC001A4B1968144B83FB01239A10CB17D21A91
:10050C0013469B0013445B00CA1A104B5A60134BE2
:10051C001B68013B114A1360104B1B68002B0BD15D
:10052C000F4B1B680D4A1360054B0A221A6003E03F
:10053C0000BF02E000BF00E000BF00BF80BD00BFF5
:10054C00A8000020E0000020676666661C01002001
:10055C00D8000020D0000020C8000020C0000020DF
:10056C00B800002080B500AF054B1B68012B04D1EF
:10057C00FFF7A0FEFFF74AFF00E000BF80BD00BF01
:10058C00AC00002080B500AF564B1B68013B032B21
:10059C0000F2848001A252F823F000BFB9050008D4
:1005AC00CD05000803060008490600080020FFF7E7
:1005BC00C7FD0346012B6AD14A4B02221A6066E042
:1005CC00494B0B221A600220FFF7BAFD0346012BA0
:1005DC0007D1464B1B68464A1360464B1B68464A7C
:1005EC0013600020FFF7ACFD0346012B51D13D4BAE
:1005FC0003221A604DE03C4B0C221A600220FFF7DC
:10060C009FFD0346012B0FD13C4B1B683C4A1360EA
:10061C003C4B1B683C4A1360344B1B68344A1360D8
:10062C00344B1B68344A13600020FFF789FD0346E6
:10063C00012B30D12B4B04221A602CE02A4B0D22BB
:10064C001A600220FFF77CFD0346012B0FD12F4BC4
:10065C001B682F4A13602F4B1B682F4A1360234BC8
:10066C001B68234A1360234B1B68234A136000202A
:10067C00FFF766FD0346012B0FD1284B05221A60AC
:10068C00274B0A221A60174B01221A6005E000BFA3
:10069C0004E000BF02E000BF00E000BF214B1B687C
:1006AC00184600F087FC1F4B1B6801331D4A136072
:1006BC001C4B1B68022B02D11A4B00221A601A4BDE
:1006CC001B68184600F0ACFC174B1B680133164A2C
:1006DC001360154B1B68022B02D1134B00221A60BE
:1006EC0000BF80BDAC000020B0000020B400002092
:1006FC00BC000020B8000020C0000020C400002076
:10070C00CC000020C8000020D0000020D400002025
:10071C00DC000020D8000020E0000020A400002015
:10072C00A80000200C0100201001002080B500AFB3
:10073C006A4B1B68012B00F0CF80694B1B680D2B9B
:10074C0000F083800D2B00F3C8800B2B02D00C2BF8
:10075C0034D0C2E001F092F801F064F80120FFF708
:10076C00EFFC0346012B09D15E4B1B6801335D4A3C
:10077C0013605D4B1B6801335B4A1360594B1B685C
:10078C005A4A82FB03129210DB17D31A584A136091
:10079C00544B1968554B83FB01239A10CB17D21A73
:1007AC0013469B0013445B00CA1A514B5A60514BC1
:1007BC0000221A604F4B01225A608EE001F07AF849
:1007CC0001F03EF80120FFF7BBFC0346012B1CD1C6
:1007DC00494B1B680133484A1360484B1B68013373
:1007EC00464A1360444B1A68454B1B681A443D4BF0
:1007FC001B689A4209DD3B4B1B680133394A136075
:10080C00394B1B680133384A13603B4B1B68374A22
:10081C0082FB03129210DB17D31A354A1360364B46
:10082C001968324B83FB01239A10CB17D21A13464B
:10083C009B0013445B00CA1A2D4B5A602D4B0022AF
:10084C001A602C4B02225A6047E001F04FF801F07D
:10085C0005F80120FFF774FC0346012B1CD1284B33
:10086C001B680133264A1360264B1B680133254A4B
:10087C001360214B1A68224B1B681A44194B1B68D6
:10088C009A4209DD174B1B680133164A1360164B4D
:10089C001B680133144A1360194B1B68134A82FB03
:1008AC0003129210DB17D31A114A1360144B1968F8
:1008BC000E4B83FB01239A10CB17D21A13469B00C5
:1008CC0013445B00CA1A0A4B5A600A4B00221A6086
:1008DC00084B03225A6000E000BF80BDAC00002032
:1008EC00B0000020B4000020B800002067666666E7
:1008FC00140100201C010020C4000020C8000020AE
:10090C00D4000020D800002080B582B000AF786001
:10091C007B68002B29D100224FF40071D34801F0E1
:10092C0026FB00224FF48061D04801F020FB00220E
:10093C004FF40061CD4801F01AFB00224FF48051B6
:10094C00CA4801F014FB00224FF40051C74801F0D3
:10095C000EFB00224FF48041C44801F008FB012239
:10096C004FF40041C14801F002FB7B68012B29D1F7
:10097C0001224FF40071BD4801F0F9FA00224FF446
:10098C008061BA4801F0F3FA00224FF40061B748D5
:10099C0001F0EDFA01224FF48051B44801F0E7FA6E
:1009AC0001224FF40051B14801F0E1FA01224FF459
:1009BC008041AE4801F0DBFA01224FF40041AB4814
:1009CC0001F0D5FA7B68022B29D100224FF400717B
:1009DC00A64801F0CCFA00224FF48061A34801F044
:1009EC00C6FA01224FF40061A04801F0C0FA0022BF
:1009FC004FF480519D4801F0BAFA00224FF4005197
:100A0C009A4801F0B4FA01224FF48041974801F062
:100A1C00AEFA00224FF40041944801F0A8FA7B682A
:100A2C00032B29D100224FF40071904801F09FFA5A
:100A3C0000224FF480618D4801F099FA00224FF4A6
:100A4C0000618A4801F093FA00224FF480518748E4
:100A5C0001F08DFA01224FF40051844801F087FA1D
:100A6C0001224FF48041814801F081FA00224FF4B9
:100A7C0000417E4801F07BFA7B68042B29D10122CE
:100A8C004FF40071794801F072FA00224FF4806142
:100A9C00764801F06CFA00224FF40061734801F0C3
:100AAC0066FA01224FF48051704801F060FA01227D
:100ABC004FF400516D4801F05AFA00224FF4804176
:100ACC006A4801F054FA00224FF40041674801F0E3
:100ADC004EFA7B68052B29D100224FF40071634834
:100AEC0001F045FA01224FF48061604801F03FFAB1
:100AFC0000224FF400615D4801F039FA00224FF4F6
:100B0C0080515A4801F033FA01224FF400515748F2
:100B1C0001F02DFA00224FF48041544801F027FADD
:100B2C0000224FF40041514801F021FA7B68062B5A
:100B3C0029D100224FF400714C4801F018FA01221F
:100B4C004FF48061494801F012FA00224FF4006121
:100B5C00464801F00CFA00224FF48051434801F052
:100B6C0006FA00224FF40051404801F000FA00222E
:100B7C004FF480413D4801F0FAF900224FF4004156
:100B8C003A4801F0F4F97B68072B29D100224FF485
:100B9C000071364801F0EBF900224FF480613348C4
:100BAC0001F0E5F900224FF40061304801F0DFF963
:100BBC0001224FF480512D4801F0D9F901224FF454
:100BCC0000512A4801F0D3F901224FF48041274803
:100BDC0001F0CDF901224FF40041244801F0C7F98E
:100BEC007B68082B29D100224FF400711F4801F0BB
:100BFC00BEF900224FF480611C4801F0B8F90022C4
:100C0C004FF40061194801F0B2F900224FF4805101
:100C1C00164801F0ACF900224FF40051134801F0D2
:100C2C00A6F900224FF48041104801F0A0F90022EF
:100C3C004FF400410D4801F09AF97B68092B2CD137
:100C4C0000224FF40071094801F091F900224FF491
:100C5C008061064801F08BF900224FF400610348D3
:100C6C0001F085F900224FF4805101E000080140A9
:100C7C000C4801F07CF901224FF40051094801F0B5
:100C8C0076F900224FF48041064801F070F90022F9
:100C9C004FF40041034801F06AF900BF0837BD4624
:100CAC0080BD00BF0008014080B582B000AF786005
:100CBC007B68002B22D100220121BD4801F057F99D
:100CCC0000220221BA4801F052F900220421B8484E
:100CDC0001F04DF900220821B54801F048F9002235
:100CEC001021B34801F043F900222021B04801F053
:100CFC003EF901224021AE4801F039F97B68012B05
:100D0C0022D101220121AA4801F031F9002202214D
:100D1C00A74801F02CF900220421A54801F027F97D
:100D2C0001220821A24801F022F901221021A04839
:100D3C0001F01DF9012220219D4801F018F9012232
:100D4C0040219B4801F013F97B68022B22D1002231
:100D5C000121974801F00BF900220221944801F07F
:100D6C0006F901220421924801F001F90022082120
:100D7C008F4801F0FCF8002210218D4801F0F7F8A3
:100D8C00012220218A4801F0F2F8002240218848F3
:100D9C0001F0EDF87B68032B22D10022012184485D
:100DAC0001F0E5F800220221814801F0E0F8002270
:100DBC0004217F4801F0DBF8002208217C4801F077
:100DCC00D6F8012210217A4801F0D1F80122202115
:100DDC00774801F0CCF800224021754801F0C7F8A3
:100DEC007B68042B22D101220121714801F0BFF84C
:100DFC00002202216E4801F0BAF8002204216C484E
:100E0C0001F0B5F801220821694801F0B0F801227F
:100E1C001021674801F0ABF800222021644801F052
:100E2C00A6F800224021624801F0A1F87B68052B4E
:100E3C0022D1002201215E4801F099F80122022101
:100E4C005B4801F094F800220421594801F08FF816
:100E5C0000220821564801F08AF80122102154483A
:100E6C0001F085F800222021514801F080F8002281
:100E7C0040214F4801F07BF87B68062B22D10022E1
:100E8C0001214B4801F073F801220221484801F07E
:100E9C006EF800220421464801F069F8002208216E
:100EAC00434801F064F800221021414801F05FF83A
:100EBC00002220213E4801F05AF8002240213C48F3
:100ECC0001F055F87B68072B22D10022012138480C
:100EDC0001F04DF800220221354801F048F80022BB
:100EEC000421334801F043F801220821304801F075
:100EFC003EF8012210212E4801F039F80122202160
:100F0C002B4801F034F801224021294801F02FF838
:100F1C007B68082B22D100220121254801F027F8FB
:100F2C0000220221224801F022F80022042120484C
:100F3C0001F01DF8002208211D4801F018F80022CC
:100F4C0010211B4801F013F800222021184801F051
:100F5C000EF800224021164801F009F87B68092B95
:100F6C0022D100220121124801F001F800220221B5
:100F7C000F4800F0FCFF002204210D4800F0F7FFA1
:100F8C00002208210A4800F0F2FF01221021084833
:100F9C0000F0EDFF00222021054800F0E8FF0022C0
:100FAC004021034800F0E3FF00BF0837BD4680BD79
:100FBC00000C014080B582B000AF78607B68002BDC
:100FCC0003D07B68012B11D021E000228021124834
:100FDC0000F0CDFF01224FF480710F4800F0C7FFE5
:100FEC000E4B1B681846FFF78FFC10E00122802186
:100FFC00094800F0BCFF00224FF48071064800F055
:10100C00B6FF064B5B681846FFF77EFC00BF00BFBF
:10101C000837BD4680BD00BF000C01401401002004
:10102C0080B582B000AF78607B68002B03D07B6802
:10103C00012B12D023E000224FF40071124800F073
:10104C0096FF01224FF480510F4800F090FF0F4B98
:10105C001B681846FFF728FE11E001224FF40071BF
:10106C00094800F084FF00224FF48051064800F03C
:10107C007EFF064B5B681846FFF716FE00BF00BFED
:10108C000837BD4680BD00BF000C01401C0100208C
:10109C0080B500AF00F06AFC00F026F800F0ACF868
:1010AC0000F05EF80C4801F0BFFB00F01BF94FF4A8
:1010BC00FA720021094800F02FF94FF47A720A21D4
:1010CC00074800F029F9FA221421064800F024F907
:1010DC0000F0E2F9FCE700BF500100209105000888
:1010EC00710500083907000880B590B000AF07F112
:1010FC00180328220021184601F046FF3B1D002250
:10110C001A605A609A60DA601A610223BB6101238B
:10111C00BB621023FB6200237B6307F118031846A4
:10112C0000F056FF0346002B01D000F0D5F80F233A
:10113C007B600023BB600023FB6000233B6100232A
:10114C007B613B1D0021184601F0C2F90346002BC0
:10115C0001D000F0C1F800BF4037BD4680BD000093
:10116C0080B586B000AF07F1080300221A605A6000
:10117C009A60DA603B4600221A605A601D4B4FF0B1
:10118C0080421A601B4B41F63F725A60194B002289
:10119C009A60184B0922DA60164B00221A61154B23
:1011AC0000229A61134801F0EFFA0346002B01D09C
:1011BC0000F092F84FF48053BB6007F10803194616
:1011CC000C4801F06DFC0346002B01D000F084F8B4
:1011DC0000233B6000237B603B461946054801F029
:1011EC0045FE0346002B01D000F076F800BF1837FF
:1011FC00BD4680BD5001002080B586B000AF07F120
:10120C00080300221A605A609A60DA60294B9B69C5
:10121C00284A43F004039361264B9B6903F00403B3
:10122C007B607B68234B9B69224A43F008039361E4
:10123C00204B9B6903F008033B603B6800224FF690
:10124C00FC711D4800F093FE002241F2FF311B4857
:10125C0000F08DFE4FF6FC73BB600123FB60002396
:10126C003B6102237B6107F108031946124800F029
:10127C00EDFC41F2FF33BB600123FB6000233B61BB
:10128C0002237B6107F1080319460C4800F0DEFCD1
:10129C004FF46043BB600023FB6001233B6107F10B
:1012AC0008031946054800F0D1FC00BF1837BD46AD
:1012BC0080BD00BF0010024000080140000C01403E
:1012CC0080B582B000AF7860FEF754FF00F084F870
:1012DC0000BF0837BD4680BD80B400AF72B600BFFA
:1012EC00FEE7000080B582B000AF00237B6006E013
:1012FC007B68184600F020F97B6801337B60054B56
:10130C001B781A467B689342F2DB00BF00BF08379C
:10131C00BD4680BD2401002080B485B000AFF860CC
:10132C00B9607A60294B1B78272B4AD8274B1B783E
:10133C001946274A0B469B000B449B001344FA6842
:10134C001A60224B1B781846BB68224AA2FB032367
:10135C00DA081F4903469B0003449B000B440433EB
:10136C001A601A4B1B7818467B681A4AA2FB032397
:10137C00DA08174903469B0003449B000B440833CF
:10138C001A60124B1B781946114A0B469B000B44F2
:10139C009B0013440C3300221A700C4B1A780B4B25
:1013AC001B78194610460A4A0B469B000B449B00BF
:1013BC00134410331860054B1B780133DAB2034B1E
:1013CC001A7000BF1437BD4680BC70472401002042
:1013DC0098010020CDCCCCCC80B483B000AF0023DE
:1013EC007B6048E02A497A6813469B0013449B00B3
:1013FC000B4404331B68002B13D025497A68134621
:10140C009B0013449B000B4404331B68591E20485B
:10141C007A6813469B0013449B0003440433196001
:10142C0026E01B497A6813469B0013449B000B442F
:10143C000833196816487A6813469B0013449B00BE
:10144C0003440433196012497A6813469B00134411
:10145C009B000B440C331B780133D8B20C497A68CF
:10146C0013469B0013449B000B440C3302461A702A
:10147C007B6801337B60074B1B781A467B68934271
:10148C00B0DB00BF00BF0C37BD4680BC704700BF4F
:10149C00980100202401002080B582B000AF002309
:1014AC007B603AE022497A6813469B0013449B0008
:1014BC000B440C331B78002B2CD01D497A68134637
:1014CC009B0013449B000B440C331B78013BD8B29C
:1014DC0017497A6813469B0013449B000B440C334A
:1014EC0002461A7012497A6813469B0013449B00FB
:1014FC000B441B6898470E497A6813469B001344AB
:10150C009B000B4408331B68002B03D17B681846E7
:10151C0000F012F87B6801337B60064B1B781A468F
:10152C007B689342BEDB00BF00BF0837BD4680BD61
:10153C009801002024010020B0B485B000AF786081
:10154C007B68FB6017E0FB685A1C2B48F9680B465C
:10155C009B000B449B001844274913469B001344E3
:10156C009B000B4404461D460FCD0FC42B68236013
:10157C00FB680133FB60214B1B781A46FB689342D6
:10158C00E1D31E4B1B7819461B4A0B469B000B44A0
:10159C009B00134400221A60184B1B781946164AFC
:1015AC000B469B000B449B001344043300221A602F
:1015BC00124B1B781946104A0B469B000B449B00A0
:1015CC001344083300221A600C4B1B7819460A4A44
:1015DC000B469B000B449B0013440C3300221A70E7
:1015EC00064B1B78013BDAB2044B1A7000BF143760
:1015FC00BD46B0BC704700BF9801002024010020FC
:10160C0080B485B000AF154B9B69144A43F00103BD
:10161C009361124B9B6903F00103BB60BB680F4BDA
:10162C00DB690E4A43F08053D3610C4BDB6903F04A
:10163C0080537B607B680A4B5B68FB60FB6823F024
:10164C00E063FB60FB6843F08063FB60044AFB686B
:10165C00536000BF1437BD4680BC70470010024079
:10166C000000014080B584B000AF78607B681B68D7
:10167C00B3F1804F13D10C4BDB690B4A43F00103E0
:10168C00D361094BDB6903F00103FB60FB680022AB
:10169C0000211C2000F0A3FA1C2000F0BCFA00BFB3
:1016AC001037BD4680BD00BF0010024080B400AFB3
:1016BC00FEE780B400AFFEE780B400AFFEE780B475
:1016CC0000AFFEE780B400AFFEE780B400AF00BF10
:1016DC00BD4680BC704780B400AF00BFBD4680BC27
:1016EC00704780B400AF00BFBD4680BC704780B56A
:1016FC0000AF00F081F900BF80BD000080B500AFE5
:10170C00024801F0DDF800BF80BD00BF5001002091
:10171C0080B400AF00BFBD4680BC704780B500AF41
:10172C0001220421074800F022FC00220821054870
:10173C0000F01DFC00221021024800F018FC00BF34
:10174C0080BD00BF0008014080B500AF002204211D
:10175C00074800F00CFC01220821054800F007FCAA
:10176C0000221021024800F002FC00BF80BD00BF27
:10177C000008014080B500AF00220421074800F0AA
:10178C00F6FB00220821054800F0F1FB0122102194
:10179C00024800F0ECFB00BF80BD00BF0008014018
:1017AC0080B500AF01224021074800F0E0FB002289
:1017BC008021054800F0DBFB00224FF480710248C9
:1017CC0000F0D5FB00BF80BD0008014080B500AF24
:1017DC0000224021074800F0CAFB01228021054865
:1017EC0000F0C5FB00224FF48071024800F0BFFBF3
:1017FC0000BF80BD0008014080B500AF0022402131
:10180C00074800F0B4FB00228021054800F0AFFB34
:10181C0001224FF48071024800F0A9FB00BF80BD8B
:10182C000008014080B500AF0421044800F0B7FB6C
:10183C004021024800F0B3FB00BF80BD000801400E
:10184C0080B500AF0821044800F0A9FB80210248B4
:10185C0000F0A5FB00BF80BD0008014080B500AFC3
:10186C001021054800F09BFB4FF48071024800F0FA
:10187C0096FB00BF80BD00BF0008014080B500AFE3
:10188C00002208210A4800F072FB002210210848AF
:10189C0000F06DFB00228021054800F068FB00225F
:1018AC004FF48071024800F062FB00BF80BD00BFA6
:1018BC000008014080B500AF002204210A4800F066
:1018CC0056FB00221021084800F051FB0022402159
:1018DC00054800F04CFB00224FF48071024800F0E8
:1018EC0046FB00BF80BD00BF0008014080B500AFC3
:1018FC0000220421094800F03AFB00220821074885
:10190C0000F035FB00224021044800F030FB00229F
:10191C008021024800F02BFB00BF80BD0008014075
:10192C00FFF7F6FE0B480C490C4A002302E0D45892
:10193C00C4500433C4188C42F9D3094A094C00230F
:10194C0001E013600432A242FBD301F0F9FAFFF775
:10195C009FFB704700000020F0000020E82F0008DB
:10196C00F0000020BC040020FEE7000080B500AFB2
:10197C00084B1B68074A43F010031360032000F068
:10198C0023F90F2000F008F8FFF73AFE0023184661
:10199C0080BD00BF0020024080B582B000AF7860EF
:1019AC00124B1A68124B1B7819464FF47A73B3FB1F
:1019BC00F1F3B2FBF3F3184600F03BF90346002BAE
:1019CC0001D001230EE07B680F2B0AD80022796826
:1019DC004FF0FF3000F003F9064A7B6813600023D8
:1019EC0000E0012318460837BD4680BDE400002006
:1019FC00EC000020E800002080B400AF054B1B7801
:101A0C001A46054B1B681344034A136000BFBD46BE
:101A1C0080BC7047EC000020B804002080B400AFFC
:101A2C00024B1B681846BD4680BC7047B8040020AA
:101A3C0080B485B000AF78607B6803F00703FB606F
:101A4C000C4BDB68BB60BA684FF6FF031340BB60FE
:101A5C00FB681A02BB68134343F0BF6343F40033C3
:101A6C00BB60044ABB68D36000BF1437BD4680BC62
:101A7C00704700BF00ED00E080B400AF044BDB68A2
:101A8C001B0A03F007031846BD4680BC704700BF15
:101A9C0000ED00E080B483B000AF0346FB7197F912
:101AAC000730002B0BDBFB7903F01F02064997F97B
:101ABC0007305B09012000FA02F241F8232000BF35
:101ACC000C37BD4680BC704700E100E080B483B0A9
:101ADC0000AF03463960FB7197F90730002B0ADB26
:101AEC003B68DAB20C4997F907301201D2B20B44B9
:101AFC0083F800230AE03B68DAB20849FB7903F06B
:101B0C000F03043B1201D2B20B441A7600BF0C3700
:101B1C00BD4680BC704700BF00E100E000ED00E076
:101B2C0080B489B000AFF860B9607A60FB6803F0EC
:101B3C000703FB61FB69C3F10703042B28BF0423D4
:101B4C00BB61FB690433062B02D9FB69033B00E044
:101B5C0000237B614FF0FF32BB6902FA03F3DA43D7
:101B6C00BB681A407B699A404FF0FF317B6901FAE0
:101B7C0003F3D9437B680B40134318462437BD4607
:101B8C0080BC704780B582B000AF78607B68013B49
:101B9C00B3F1807F01D301230FE00A4A7B68013B3C
:101BAC0053600F214FF0FF30FFF790FF054B0022E1
:101BBC009A60044B07221A60002318460837BD466A
:101BCC0080BD00BF10E000E080B582B000AF78604F
:101BDC007868FFF72DFF00BF0837BD4680BD80B584
:101BEC0086B000AF0346B9607A60FB7300237B615B
:101BFC00FFF742FF78617A68B9687869FFF790FF60
:101C0C00024697F90F3011461846FFF75FFF00BFE9
:101C1C001837BD4680BD80B582B000AF0346FB715E
:101C2C0097F907301846FFF735FF00BF0837BD4658
:101C3C0080BD80B582B000AF78607868FFF7A2FFF6
:101C4C00034618460837BD4680BD000080B48BB0F3
:101C5C0000AF7860396000237B6200233B6248E16F
:101C6C0001227B6A02FA03F3FB613B681B68FA6989
:101C7C001340BB61BA69FB699A4240F037813B68FB
:101C8C005B68A34A93425ED0A14A934275D8A14A9D
:101C9C00934258D09F4A93426FD89F4A934252D056
:101CAC009D4A934269D89D4A93424CD09B4A934299
:101CBC0063D89B4A934246D0994A93425DD8122BE3
:101CCC002AD8122B59D801A252F823F0531D000820
:101CDC002D1D00083F1D0008811D0008871D0008F0
:101CEC00871D0008871D0008871D0008871D000838
:101CFC00871D0008871D0008871D0008871D000828
:101D0C00871D0008871D0008871D0008871D000817
:101D1C00351D0008491D0008824A934213D02CE05F
:101D2C003B68DB683B6229E03B68DB6804333B6261
:101D3C0024E03B68DB6808333B621FE03B68DB68F0
:101D4C000C333B621AE03B689B68002B02D10423E6
:101D5C003B6213E03B689B68012B05D108233B6277
:101D6C007B68FA691A6109E008233B627B68FA69AF
:101D7C005A6103E000233B6200E000BFBB69FF2B0C
:101D8C0001D87B6801E07B6804337B61BB69FF2B66
:101D9C0002D87B6A9B0002E07B6A083B9B003B619C
:101DAC007B691A680F213B6901FA03F3DB431A4084
:101DBC00396A3B6901FA03F31A437B691A603B6881
:101DCC005B6803F08053002B00F09080564B9B69AE
:101DDC00554A43F001039361534B9B6903F0010394
:101DEC00BB60BB68514A7B6A9B08023352F82330B4
:101DFC00FB607B6A03F003039B000F2202FA03F3E0
:101E0C00DB43FA681340FB607B68494A93420DD070
:101E1C007B68484A934207D07B68474A934201D17A
:101E2C00022304E0032302E0012300E000237A6A8A
:101E3C0002F0030292009340FA681343FB603B49A3
:101E4C007B6A9B080233FA6841F823203B685B6885
:101E5C0003F48013002B06D0384B9A683749BB69C2
:101E6C0013438B6006E0354B9A68BB69DB433349FF
:101E7C0013408B603B685B6803F40013002B06D0A7
:101E8C002E4BDA682D49BB691343CB6006E02B4B14
:101E9C00DA68BB69DB4329491340CB603B685B685C
:101EAC0003F40033002B06D0244B5A682349BB693A
:101EBC0013434B6006E0214B5A68BB69DB431F4957
:101ECC0013404B603B685B6803F48033002B06D0F7
:101EDC001A4B1A681949BB6913430B6006E0174B80
:101EEC001A68BB69DB43154913400B607B6A0133ED
:101EFC007B623B681A687B6A22FA03F3002B7FF43F
:101F0C00AFAE00BF00BF2C37BD4680BC704700BFD2
:101F1C0000003210000031100000221000002110CF
:101F2C0000001210000011100010024000000140CF
:101F3C0000080140000C0140001001400004014069
:101F4C0080B485B000AF78600B467B807B689A6864
:101F5C007B881340002B02D00123FB7301E000238C
:101F6C00FB73FB7B18461437BD4680BC704780B4AE
:101F7C0083B000AF78600B467B8013467B707B7818
:101F8C00002B03D07A887B681A6103E07B881A04E3
:101F9C007B681A6100BF0C37BD4680BC704780B4AB
:101FAC0085B000AF78600B467B807B68DB68FB609C
:101FBC007A88FB6813401A04FB68D9437B880B4072
:101FCC001A437B681A6100BF1437BD4680BC70474A
:101FDC0080B586B000AF78607B68002B01D10123FF
:101FEC006CE27B681B6803F00103002B00F0878018
:101FFC00924B5B6803F00C03042B0CD08F4B5B688B
:10200C0003F00C03082B12D18C4B5B6803F4803368
:10201C00B3F5803F0BD1894B1B6803F40033002BC5
:10202C006CD07B685B68002B68D1012346E27B682F
:10203C005B68B3F5803F06D1804B1B687F4A43F445
:10204C00803313602EE07B685B68002B0CD17B4BDC
:10205C001B687A4A23F480331360784B1B68774AE9
:10206C0023F4802313601DE07B685B68B3F5A02F1D
:10207C000CD1724B1B68714A43F4802313606F4B75
:10208C001B686E4A43F4803313600BE06B4B1B6888
:10209C006A4A23F480331360684B1B68674A23F445
:1020AC00802313607B685B68002B13D0FFF7B6FCB2
:1020BC00386108E0FFF7B2FC02463B69D31A642B87
:1020CC0001D90323FAE15D4B1B6803F40033002BA9
:1020DC00F0D014E0FFF7A2FC386108E0FFF79EFC9B
:1020EC0002463B69D31A642B01D90323E6E1534B17
:1020FC001B6803F40033002BF0D100E000BF7B68B9
:10210C001B6803F00203002B63D04C4B5B6803F09D
:10211C000C03002B0BD0494B5B6803F00C03082B12
:10212C001CD1464B5B6803F48033002B16D1434B18
:10213C001B6803F00203002B05D07B681B69012B85
:10214C0001D00123BAE13D4B1B6823F0F8027B68F8
:10215C005B69DB00394913430B603AE07B681B6910
:10216C00002B20D0364B01221A60FFF757FC386148
:10217C0008E0FFF753FC02463B69D31A022B01D946
:10218C0003239BE12D4B1B6803F00203002BF0D0C3
:10219C002A4B1B6823F0F8027B685B69DB0027493C
:1021AC0013430B6015E0264B00221A60FFF736FC38
:1021BC00386108E0FFF732FC02463B69D31A022B68
:1021CC0001D903237AE11D4B1B6803F00203002B9A
:1021DC00F0D17B681B6803F00803002B3AD07B68B6
:1021EC009B69002B19D0174B01221A60FFF716FCC4
:1021FC00386108E0FFF712FC02463B69D31A022B48
:10220C0001D903235AE10D4B5B6A03F00203002B47
:10221C00F0D0012000F09AFA1CE00A4B00221A6060
:10222C00FFF7FCFB38610FE0FFF7F8FB02463B6958
:10223C00D31A022B08D9032340E100BF001002403F
:10224C0000004242800442429E4B5B6A03F0020350
:10225C00002BE9D17B681B6803F00403002B00F012
:10226C00A6800023FB75974BDB6903F08053002B92
:10227C000DD1944BDB69934A43F08053D361914B5E
:10228C00DB6903F08053BB60BB680123FB758E4B8D
:10229C001B6803F48073002B18D18B4B1B688A4A84
:1022AC0043F480731360FFF7B9FB386108E0FFF764
:1022BC00B5FB02463B69D31A642B01D90323FDE01D
:1022CC00814B1B6803F48073002BF0D07B68DB68B8
:1022DC00012B06D17B4B1B6A7A4A43F00103136234
:1022EC002DE07B68DB68002B0CD1764B1B6A754AA2
:1022FC0023F001031362734B1B6A724A23F004032D
:10230C0013621CE07B68DB68052B0CD16D4B1B6AE0
:10231C006C4A43F0040313626A4B1B6A694A43F02C
:10232C00010313620BE0674B1B6A664A23F001033F
:10233C001362644B1B6A634A23F0040313627B68C9
:10234C00DB68002B15D0FFF769FB38610AE0FFF75B
:10235C0065FB02463B69D31A41F28832934201D99C
:10236C000323ABE0574B1B6A03F00203002BEED0A8
:10237C0014E0FFF753FB38610AE0FFF74FFB02460E
:10238C003B69D31A41F28832934201D9032395E079
:10239C004C4B1B6A03F00203002BEED1FB7D012B8F
:1023AC0005D1484BDB69474A23F08053D3617B68E6
:1023BC00DB69002B00F08180424B5B6803F00C035F
:1023CC00082B61D07B68DB69022B46D13F4B002286
:1023DC001A60FFF723FB386108E0FFF71FFB02468A
:1023EC003B69D31A022B01D9032367E0354B1B68D9
:1023FC0003F00073002BF0D17B681B6AB3F5803FB0
:10240C0008D1304B5B6823F400327B689B682D4904
:10241C0013434B602B4B5B6823F474127B68196A73
:10242C007B685B6A0B43274913434B60274B0122A4
:10243C001A60FFF7F3FA386108E0FFF7EFFA02468B
:10244C003B69D31A022B01D9032337E01D4B1B68C0
:10245C0003F00073002BF0D02FE01C4B00221A600D
:10246C00FFF7DCFA386108E0FFF7D8FA02463B695F
:10247C00D31A022B01D9032320E0124B1B6803F063
:10248C000073002BF0D118E07B68DB69012B01D1C4
:10249C00012313E00B4B5B68FB60FB6803F4803299
:1024AC007B681B6A9A4206D1FB6803F470127B6846
:1024BC005B6A9A4201D0012300E0002318461837CA
:1024CC00BD4680BD001002400070004060004242DA
:1024DC0080B584B000AF786039607B68002B01D187
:1024EC000123D0E06A4B1B6803F007033A689A4259
:1024FC0010D9674B1B6823F0070265493B681343EF
:10250C000B60634B1B6803F007033A689A4201D0D7
:10251C000123B8E07B681B6803F00203002B20D07A
:10252C007B681B6803F00403002B05D0594B5B68D8
:10253C00584A43F4E06353607B681B6803F008035C
:10254C00002B05D0534B5B68524A43F460535360E5
:10255C00504B5B6823F0F0027B689B684D4913433A
:10256C004B607B681B6803F00103002B40D07B6839
:10257C005B68012B07D1474B1B6803F40033002B1E
:10258C0015D101237FE07B685B68022B07D1414B9F
:10259C001B6803F00073002B09D1012373E03D4B42
:1025AC001B6803F00203002B01D101236BE0394BB4
:1025BC005B6823F003027B685B68364913434B600E
:1025CC00FFF72CFAF8600AE0FFF728FA0246FB68DE
:1025DC00D31A41F28832934201D9032353E02D4B95
:1025EC005B6803F00C027B685B689B009A42EBD142
:1025FC00274B1B6803F007033A689A4210D2244B0E
:10260C001B6823F0070222493B6813430B60204BE5
:10261C001B6803F007033A689A4201D0012332E0A9
:10262C007B681B6803F00403002B08D0194B5B6814
:10263C0023F4E0627B68DB68164913434B607B68CC
:10264C001B6803F00803002B09D0124B5B6823F4C2
:10265C0060527B681B69DB000E4913434B6000F032
:10266C0021F802460B4B5B681B0903F00F030A4968
:10267C00CB5C22FA03F3094A1360094B1B6818461A
:10268C00FFF78AF9002318461037BD4680BD00BFFE
:10269C000020024000100240BC2F0008E400002083
:1026AC00E800002080B487B000AF0023FB6000235B
:1026BC00BB6000237B6100237B6000233B611E4BCE
:1026CC005B68FB60FB6803F00C03042B02D0082B47
:1026DC0003D027E0194B3B6127E0FB689B0C03F010
:1026EC000F03174AD35C7B60FB6803F48033002B29
:1026FC0010D0114B5B685B0C03F00103114AD35CE7
:10270C00BB607B680D4A02FB03F2BB68B2FBF3F3C0
:10271C007B6104E07B680C4A02FB03F37B617B6901
:10272C003B6102E0054B3B6100BF3B6918461C371F
:10273C00BD4680BC704700BF0010024000127A00FA
:10274C00CC2F0008DC2F000800093D0080B485B0B8
:10275C0000AF78600A4B1B680A4AA2FB03235B0A92
:10276C007A6802FB03F3FB6000BFFB685A1EFA6039
:10277C00002BF9D100BF00BF1437BD4680BC704799
:10278C00E4000020D34D621080B582B000AF7860B9
:10279C007B68002B01D1012341E07B6893F83D302D
:1027AC00DBB2002B06D17B68002283F83C207868D2
:1027BC00FEF758FF7B68022283F83D207B681A687D
:1027CC007B6804331946104600F056FA7B680122E8
:1027DC0083F846207B68012283F83E207B68012227
:1027EC0083F83F207B68012283F840207B6801221C
:1027FC0083F841207B68012283F842207B68012208
:10280C0083F843207B68012283F844207B680122F3
:10281C0083F845207B68012283F83D20002318466D
:10282C000837BD4680BD000080B485B000AF78602D
:10283C007B6893F83D30DBB2012B01D0012335E0EE
:10284C007B68022283F83D207B681B68DA687B6812
:10285C001B6842F00102DA607B681B68164A9342DF
:10286C0009D07B681B68B3F1804F04D07B681B6870
:10287C00124A934211D17B681B689B6803F00703D3
:10288C00FB60FB68062B10D07B681B681A687B68A2
:10289C001B6842F001021A6007E07B681B681A682B
:1028AC007B681B6842F001021A600023184614373B
:1028BC00BD4680BC704700BF002C014000040040A6
:1028CC0080B584B000AF78607B681B68DB68FB6008
:1028DC007B681B681B69BB60BB6803F00203002BA1
:1028EC0020D0FB6803F00203002B1BD07B681B6815
:1028FC006FF002021A617B6801221A777B681B68F1
:10290C009B6903F00303002B03D0786800F098F95F
:10291C0005E0786800F08BF9786800F09AF97B682C
:10292C0000221A77BB6803F00403002B20D0FB684D
:10293C0003F00403002B1BD07B681B686FF00402B0
:10294C001A617B6802221A777B681B689B6903F407
:10295C004073002B03D0786800F072F905E07868BA
:10296C0000F065F9786800F074F97B6800221A773A
:10297C00BB6803F00803002B20D0FB6803F00803AE
:10298C00002B1BD07B681B686FF008021A617B68F8
:10299C0004221A777B681B68DB6903F00303002BA6
:1029AC0003D0786800F04CF905E0786800F03FF946
:1029BC00786800F04EF97B6800221A77BB6803F048
:1029CC001003002B20D0FB6803F01003002B1BD04E
:1029DC007B681B686FF010021A617B6808221A77FB
:1029EC007B681B68DB6903F44073002B03D07868A9
:1029FC0000F026F905E0786800F019F9786800F025
:102A0C0028F97B6800221A77BB6803F00103002BBE
:102A1C000CD0FB6803F00103002B07D07B681B680C
:102A2C006FF001021A617868FEF74AFCBB6803F08C
:102A3C008003002B0CD0FB6803F08003002B07D025
:102A4C007B681B686FF080021A61786800F06FFA7F
:102A5C00BB6803F04003002B0CD0FB6803F0400371
:102A6C00002B07D07B681B686FF040021A617868F6
:102A7C0000F0F8F8BB6803F02003002B0CD0FB68C7
:102A8C0003F02003002B07D07B681B686FF020023B
:102A9C001A61786800F042FA00BF1037BD4680BD5D
:102AAC0080B584B000AF786039600023FB737B681D
:102ABC0093F83C30012B01D10223B4E07B68012256
:102ACC0083F83C207B68022283F83D207B681B68DE
:102ADC009B68BB60BB6823F07703BB60BB6823F4C7
:102AEC007F43BB607B681B68BA689A603B681B6855
:102AFC00B3F5005F3ED0B3F5005F00F28780B3F50D
:102B0C00805F00F08680B3F5805F7FD8702B1AD081
:102B1C00702B7BD8602B50D0602B77D8502B3CD0AF
:102B2C00502B73D8402B58D0402B6FD8302B64D0FF
:102B3C00302B6BD8202B60D0202B67D8002B5CD08F
:102B4C00102B5AD062E07B6818683B6899683B6828
:102B5C005A683B68DB6800F06AF97B681B689B6805
:102B6C00BB60BB6843F07703BB607B681B68BA68CB
:102B7C009A604FE07B6818683B6899683B685A68B4
:102B8C003B68DB6800F053F97B681B689A687B68CC
:102B9C001B6842F480429A603CE07B6818683B6892
:102BAC0059683B68DB681A4600F0CAF87B681B68FA
:102BBC005021184600F021F92CE07B6818683B681E
:102BCC0059683B68DB681A4600F0E8F87B681B68BC
:102BDC006021184600F011F91CE07B6818683B680E
:102BEC0059683B68DB681A4600F0AAF87B681B68DA
:102BFC004021184600F001F90CE07B681A683B682C
:102C0C001B681946104600F0F8F803E00123FB732B
:102C1C0000E000BF7B68012283F83D207B68002226
:102C2C0083F83C20FB7B18461037BD4680BD80B432
:102C3C0083B000AF786000BF0C37BD4680BC7047D6
:102C4C0080B483B000AF786000BF0C37BD4680BC49
:102C5C00704780B483B000AF786000BF0C37BD46BE
:102C6C0080BC704780B483B000AF786000BF0C3775
:102C7C00BD4680BC7047000080B485B000AF786062
:102C8C0039607B681B68FB607B682B4A934207D0DA
:102C9C007B68B3F1804F03D07B68284A934208D1FC
:102CAC00FB6823F07003FB603B685B68FA681343B6
:102CBC00FB607B68204A934207D07B68B3F1804F5E
:102CCC0003D07B681D4A934208D1FB6823F4407300
:102CDC00FB603B68DB68FA681343FB60FB6823F01E
:102CEC0080023B685B691343FB607B68FA681A607F
:102CFC003B689A687B68DA623B681A687B689A6200
:102D0C007B680D4A934203D13B681A697B681A634E
:102D1C007B6801225A617B681B6903F00103002B5D
:102D2C0005D07B681B6923F001027B681A6100BF28
:102D3C001437BD4680BC7047002C01400004004095
:102D4C0080B487B000AFF860B9607A60FB681B6A2A
:102D5C007B61FB681B6A23F00102FB681A62FB684B
:102D6C009B693B613B6923F0F0033B617B681B0172
:102D7C003A6913433B617B6923F00A037B617A69EF
:102D8C00BB6813437B61FB683A699A61FB687A699B
:102D9C001A6200BF1C37BD4680BC704780B487B038
:102DAC0000AFF860B9607A60FB681B6A7B61FB68F6
:102DBC001B6A23F01002FB681A62FB689B693B617B
:102DCC003B6923F470433B617B681B033A691343F3
:102DDC003B617B6923F0A0037B61BB681B017A69B3
:102DEC0013437B61FB683A699A61FB687A691A62E2
:102DFC0000BF1C37BD4680BC704780B485B000AFA7
:102E0C00786039607B689B68FB60FB6823F070031B
:102E1C00FB603A68FB68134343F00703FB607B6875
:102E2C00FA689A6000BF1437BD4680BC704780B406
:102E3C0087B000AFF860B9607A603B60FB689B6854
:102E4C007B617B6923F47F437B613B681A027B685F
:102E5C001A43BB6813437A6913437B61FB687A6935
:102E6C009A6000BF1C37BD4680BC704780B485B0EB
:102E7C0000AF786039607B6893F83C30012B01D14E
:102E8C00022341E07B68012283F83C207B6802220C
:102E9C0083F83D207B681B685B68FB607B681B6864
:102EAC009B68BB60FB6823F07003FB603B681B688E
:102EBC00FA681343FB607B681B68FA685A607B688E
:102ECC001B68144A934209D07B681B68B3F1804F8E
:102EDC0004D07B681B68104A93420CD1BB6823F06A
:102EEC008003BB603B685B68BA681343BB607B685C
:102EFC001B68BA689A607B68012283F83D207B6866
:102F0C00002283F83C20002318461437BD4680BCB1
:102F1C00704700BF002C01400004004080B483B017
:102F2C0000AF786000BF0C37BD4680BC704780B4E2
:102F3C0083B000AF786000BF0C37BD4680BC7047D3
:102F4C0070B500260C4D0D4C641BA410A64209D183
:102F5C0000F022F800260A4D0A4C641BA410A6426D
:102F6C0005D170BD55F8043B98470136EEE755F88E
:102F7C00043B98470136F2E7E02F0008E02F0008E9
:102F8C00E02F0008E42F000803460244934200D1CE
:102F9C00704703F8011BF9E7F8B500BFF8BC08BC93
:102FAC009E467047F8B500BFF8BC08BC9E467047FB
:102FBC0000000000000000000102030406070809DD
:102FCC0002030405060708090A0B0C0D0E0F10105E
:042FDC0001020000EE
:042FE00031010008B3
:042FE4000D010008D3
:102FE80001000000000000000000000000000000D8
:102FF80000000000000000000000000000000000C9
:1030080000000000000000000100000000000000B7
:1030180000000000000000000000000000000000A8
:103028000000000000000000000000000000000098
:103038000100000000000000000000000000000087
:103048000000000000000000000000000000000078
:103058000000000000000000010000000000000067
:103068000000000000000000000000000000000058
:103078000000000000000000000000000000000048
:10308800C8000000050000000A0000000100000060
:103098000B0000000500000005000000050000000E
:1030A800050000000200000002000000020000000D
:1030B80002000000030000000300000003000000FD
:1030C8000300000000127A00100000000100000058
:040000050800192DA9
:00000001FF
